:0400000080311F2804
:100008007E1480310B1E09280A2812288B1C0D2803
:100018000E2812288631482680311D288B1D152868
:1000280016281D280B1C19281A281D288531D425A7
:1000380080317E10090080312128F701F801F9018B
:1000480020308400003085001D308531F425803152
:100058007E102000803130288331EE238031AD308E
:10006800F4000530F50086310C2680312100151387
:100078008B100B16A230F4000530F5008531FA25F7
:1000880080318B170B170F302000D1005108CD009D
:100098000E3082316A2280312000D2005208D3000B
:1000A8005308013ED1005108D3001E30D100510839
:1000B800CD002830D2005208CE000E308231A12265
:1000C80080311B302000D1005108CD008130D20092
:1000D8005208CE000E308231A12280310030F40067
:1000E800F50084315E2480310030F400F50084315D
:1000F800422480310030F400F50084310A24803134
:1001080018302000D1005108CD000E3082316A220B
:1001180080310030F400F50084315E248031E8300D
:10012800F4000330F5008431AB2480310130F40051
:100138000030F50084315E248031E830F40003306B
:10014800F5008431AB2480310A30F4000030F5002A
:1001580084315E248031E830F4000330F5008431C6
:10016800AB2480313230F4000030F50084315E2455
:100178008031E830F4000330F5008431AB2480315D
:100188006430F4000030F50084315E248031E830BA
:10019800F4000330F5008431AB2480310030F400E2
:1001A800F50084315E2480310030F400F50084319C
:1001B8000A248031E830F4000330F5008431AB24A0
:1001C80080310130F4000030F50084310A24803198
:1001D800E830F4000330F5008431AB2480310A3074
:1001E800F4000030F50084310A248031E830F4004E
:1001F8000330F5008431AB2480313230F400003014
:10020800F50084310A248031E830F4000330F50029
:100218008431AB2480316430F4000030F50084313F
:100228000A248031E830F4000330F5008431AB242F
:1002380080310030F400F50084310A248031003028
:10024800F400F50084315E2480310030F400F500BC
:1002580084310A248031E830F4000330F500843119
:10026800AB2480310130F4000030F50084315E2485
:1002780080310130F4000030F50084310A248031E7
:10028800E830F4000330F5008431AB2480310A30C3
:10029800F4000030F50084315E2480310A30F40027
:1002A8000030F50084310A248031E830F40003304E
:1002B800F5008431AB2480313230F4000030F50091
:1002C80084315E2480313230F4000030F50084310E
:1002D8000A248031E830F4000330F5008431AB247F
:1002E80080316430F4000030F50084315E248031C0
:1002F8006430F4000030F50084310A248031E8309D
:10030800F4000330F5008431AB2480310030F40070
:10031800F50084315E2480317E2880311F288631A3
:1003280006268131003A03199A299B29CC29A82944
:10033800863139268131E829863134268131E82908
:1003480086312A268131E82920002F08C400440874
:10035800C3000630203E86008701413F8A00403FA7
:100368000A0081312000C500C6014608003A031979
:10037800BE29A4294508013A0319A429033A0319F7
:100388009C29013A0319A029073A0319A429A42989
:1003980020003C101730203E86008701403F840033
:1003A8008501810A00088631432681310130200009
:1003B800B8020030B93B38083904031DE429E5299F
:1003C800E7290630E8290330080086315C268131A8
:1003D8002000C400370886008701440881000130E6
:1003E800C4004408B7070130B8020030B93B3808E8
:1003F80039040319002A012A062A86315126813137
:1004080005302F2ABC15102A86311B2681312F2A48
:100418008631202681312F2A2C08C4004408C300C5
:1004280021088A0020080A0082312000C500C60180
:100438004608003A0319212A0C2A4508013A0319EB
:100448000C2A033A0319082A013A0319082A073A19
:1004580003190C2A0C2A0800F500F601F60A2000F8
:100468003C19372A382A682A7508F4007408B60037
:10047800BC103C153C100E30F4007408BA00F4307F
:10048800B4000130B500BC157630A0000630A100DC
:10049800AC017630A2000630A300AD017630A4008E
:1004A8000630A500AE017630A6000630A700AF01E1
:1004B8007430A8000630A900B00186317126823157
:1004C800853164258231F601760808002000CF00C6
:1004D800D00120004F08823130228231003A0319BE
:1004E800762A772A6D2AE7302000BF000430C00042
:1004F8005030CE004E08C10085315625823101307A
:10050800F4000030F5004D3085310D258231003082
:100518002000BF00C000C1018531482582318631E5
:1005280011268231843126248231013A03199D2A09
:100538009E2A962A2000500808002000D00020009B
:100548005008823130228231003A0319AC2AAD2A90
:10055800A32AC1302000BF000430C0004E30CF00B5
:100568004F08C1008531562582310130F400003032
:10057800F5004D3085310D25823100302000BF0057
:10058800C000C1018531482582318631112682316A
:10059800843126248231013A0319D32AD42ACC2A59
:1005A80008002000BC15E52A86312F268231042B4D
:1005B8008631592682310330042B86312A2682312E
:1005C800042B2C08C4004408C30021088A00200812
:1005D8000A0082312000C500C6014608003A031906
:1005E800F62AE12A4508013A0319E12A033A0319D0
:1005F800D82A013A0319D82A073A0319DC2AE12A2A
:10060800080020003C100230C4004408BB00142B32
:1006180086312F268331312B86312A268331312B9F
:100628002E08C4004408C3000430203E8600870119
:10063800413F8A00403F0A0083312000C500C601BF
:100648004608003A0319292B102B4508023A0319CA
:100658000C2B013A03190C2B102B080022008C01DB
:1006680050308D008E013F3021008C00F0308D001D
:1006780097308E00873023008E0020308D00133095
:100688008C00803024008D0004308C008E01210005
:10069800951322009D019E01270096139517941328
:1006A8007830F4000630F5008531FA2583318B1552
:1006B800080086317126833120003C1C642B652B91
:1006C800722B863106268331003A03196C2B6D2B69
:1006D800722B0F302000C7004708BA0020003A08E4
:1006E800C700C801C735C80DAF304707840083303D
:1006F800483D8500013F8A00003F0A008331200001
:10070800C9004908BA0008002000BE007408750432
:1007180003198F2B902BA12B3E35203E8600870195
:100728007408C03F7508C13F7608BD003E082C3EDE
:10073800860087013D088100AE2B3E35203E8600AD
:1007480087017630C03F0630C13F3E082C3E860008
:100758008701810108003E340634CB340534E53482
:10076800053493340134E9340134ED340534D53497
:10077800023439340634343406342F3406342A34F7
:10078800063425340634203406341B340634163433
:100798000634053403342000CB00CC01CC0ABC1845
:1007A800D62BD72BEB2BBC14CC014B080319DD2B14
:1007B800DE2BE12BBA01BA0AE52B0230CA004A083F
:1007C800BA0086316826833185317125833120004E
:1007D8004C0808008531C2258331833132238331A7
:1007E80085317E25833186314D26833185312C250F
:1007F800833185313A2583318531B8258331853177
:10080800DD25833185318A2583310800750820006C
:10081800BE007408BD00BE36BD0CBE36BD0C3D081A
:1008280026009800740803392000BD000430BD3547
:10083800890B1B2C26001A08CF3920003D042600FE
:100848009A000800F501F50A2000BC182C2C2D2C64
:10085800402C3C11FF30F4007408B6008631712634
:10086800843186316B26843186316E2684312000AE
:100878003B08F4007408F5007508080075082000A6
:10088800BE007408BD00BE36BD0CBE36BD0C3D08AA
:1008980025009800740803392000BD000430BD35D8
:1008A800890B532C25001A08CF3920003D04250058
:1008B8009A00080075082000BE007408BD00BE3606
:1008C800BD0CBE36BD0C3D082500910074080339E7
:1008D8002000BD000430BD35890B6F2C250013089E
:1008E800CF3920003D04250093000800200043086C
:1008F80086008701403FF400413FF5004308023E6F
:1009080086008701010885310D25843100302000DB
:10091800BF00C000C101853156258431023008006E
:100928007108F3007008F200F336F20CF336F20C9B
:1009380072082500980070080339F2000430F23577
:10094800890BA32C1A08CF3972049A000800B42C1A
:100958000B30F6006230890BAF2CF60BAF2C00324F
:100968000130F4020030F53B740A031DBF2C750AF0
:10097800031DBF2CC02CAC2C08000130F400003043
:10098800F5002000430885310D2584310030200012
:10099800BF00C000C10185315625843104300800EC
:1009A8000230F4000030F5002000430885310D25A1
:1009B800843100302000BF00C000C10185315625B8
:1009C8008431023008000130F4000030F5002000C6
:1009D800430885310D25843100302000BF00C00058
:1009E800C101853156258431023008000230F400F7
:1009F8000030F5002000430885310D258431003092
:100A08002000BF00C000C101853156258431043063
:100A180008002000BD00BC1D122D132D1C2D3D0803
:100A2800F6007608B7007508B9007408B800BC115C
:100A380008002000540855040319232D242D292DBE
:100A480055088A0054080A008531270096130800C3
:100A58003C3025009A009C0180309B0001309D00AD
:100A6800990113309800F3309E0508003C302500AA
:100A78009300950180309400013096009201133064
:100A88009100FC309E05080020004008F5003F0852
:100A9800F4004108C2004208F6000230833188237E
:100AA8008531080020004008F5003F08F40041089F
:100AB800C2004208F60000308331882385310800DF
:100AC8002400951A682D692D702D94010830950021
:100AD80096014F30920095160800782D8631002631
:100AE800853183315D2385312000BC187C2D7D2D17
:100AF800722D08007030210099009801220096019B
:100B080021001A1F882D892D842D08008B102100A3
:100B180015137930F4000630F50086310C2685313E
:100B28000B1608007708780403199B2D9C2DA12D1E
:100B380078088A0077080A008531080079080A3E93
:100B4800F000003003180130F1008431942485311D
:100B5800080079080A3EF000003003180130F1005F
:100B680084319424853108003C3026009A001330E3
:100B7800980099013F3025009E0508002400940143
:100B88000830950096014F30920095120800200019
:100B98003C140314360D8631432685310530080090
:100BA8002700961FD82DD92DDC2D85311D2585319F
:100BB8000800273020009B009A01911007309C0004
:100BC800080020003C143635863143268531033031
:100BD800080020003C1086315F268531043008006B
:100BE800640080010131890BF52D0034750820005F
:100BF800D5007408D40008002000911D042E052E8D
:100C0800002E08002400160E890C890C01390800F2
:100C18007508F8007408F700080000308331CF2306
:100C2800863108002000BC10BB010E300800863158
:100C380055268631093008008631552686310A3016
:100C48000800863151268631053008008631622633
:100C5800863100300800863165268631013008006B
:100C68008631652686310230080086316526863150
:100C7800013008002000BC10BB010E300800F40051
:100C880074082400910008008B1085319625863160
:100C98000800163021009700080024009612161646
:100CA8000800240096161616080020009115080062
:100CB80024001108080024009615080024001615C1
:100CC80008002400961408002400161408002100C7
:100CD80091110800240095120800200091110800C5
:0C0CE8000530080001300800080008007A
:020000040001F9
:04000E00E43FFF3F8D
:00000001FF
