:0400000080313228F1
:100008007E1480310B1E09280A2812288B1C0D2803
:100018000E28122887316A27803130288B1D152831
:1000280016281E280B1C19281A281E288631EE2689
:10003800803130280B1F2128222830282100931CCA
:100048002628272830282000931C2B282C283028E5
:100058008531BA25803130287E1009008031342856
:10006800F901FA0120308400003085002130873101
:100078000E2780317E1020008031422884317F2471
:100088008031A8302000C1000730C2008731202706
:1000980080317F302000C1000730C20087311A2725
:1000A80080317B302000C1000730C200873114271F
:1000B80080318B170B171D302000D8005808D4004A
:1000C8008030D9005908D5000E3083314E23803155
:1000D800E8302000C1000330C20085314725803157
:1000E8000F302000D8005808D4000E308331162372
:1000F80080312000D9005908DA001E30D80058088D
:10010800D4002830D9005908D5000E3083314E2349
:1001180080311F302000D8005808D400BF30D900E3
:100128005908D5000E3083314E2380311B30200012
:10013800D8005808D400D5010E3083314E238031C1
:100148001B302000D8005808D4000230D9005908C4
:10015800D5000E3083314E2380311B302000D8006B
:100168005808D4008230D9005908D5000E308331A0
:100178004E2380311B302000D8005808D4000E30A0
:100188008331162380312000D9005908DA00003065
:10019800C100C20085311125803100302000C10026
:1001A800C2008431F524803100302000C100C20033
:1001B8008431BD24803107302000D8005808D4008D
:1001C8000E308331162380312000D9005908DB0016
:1001D8000930D8005808D4000E30833116238031F6
:1001E8002000D9005908DC000B30D8005808D4008A
:1001F8000E308331162380312000D9005908DD00E4
:100208005B08803A7F3E031C0A290B2914295B08E6
:10021800C100C201C11BC2038531112580312529C6
:100228005B08D800D901D81BD903D809D909D80A3D
:100238000319D90A5808C1005908C2008531112587
:10024800803120005C08803A7F3E031C2C292D2930
:1002580036295C08C100C201C11BC2038431F524E0
:10026800803147295C08D800D901D81BD903D8099F
:10027800D909D80A0319D90A5808C1005908C2006F
:100288008431F524803120005D08803A7F3E031CCC
:100298004E294F2958295D08C100C201C11BC2035C
:1002A8008431BD248031DF285D08D800D901D81BEE
:1002B800D903D809D909D80A0319D90A5808C10095
:1002C8005908C2008431BD248031DF2880313228AA
:1002D8000030F000F10085318D2581310030F000CB
:1002E800F1008531762581310030F000F10085314B
:1002F8005F258131F6017608F400F5017408F000F5
:100308007508F10085318D2581316430F0000030A9
:10031800F1008531A42581310130F4007408F60715
:1003280014307602031C99299A297F29F601760848
:10033800F400F5017408F0007508F10085317625A0
:1003480081317608F400F5017408F0007508F100B1
:1003580085315F2581316430F0000030F10085314E
:10036800A42581310130F4007408F60714307602B0
:10037800031CBF29C0299B291430F4007408F60017
:100388007608F400F5017408F0007508F10085316D
:100398008D2581317608F400F5017408F0007508A0
:1003A800F1008531762581317608F400F50174086D
:1003B800F0007508F10085315F2581310A30F000C1
:1003C8000030F1008531A42581310130F400740832
:1003D800F60764307602031CF229F329C429B830E1
:1003E800F0000B30F1008531A42581316430F40030
:1003F8007408F6007608F400F5017408F000750832
:10040800F10085318D2581317608F400F5017408F5
:10041800F0007508F1008531762581317608F40001
:10042800F5017408F0007508F10085315F25813108
:100438000A30F0000030F1008531A4258131013007
:10044800F6020230760203182A2A2B2AFE290030E7
:10045800F000F10085318D2581310030F000F10088
:100468008531762581310030F000F10085315F2536
:100478008131080087312C278231003A0319452A37
:10048800462A772A532A873160278231932A87316F
:100498005B278231932A873151278231932A2000A2
:1004A8002F08CB004B08CA000630203E8600870183
:1004B800413F8A00403F0A0082312000CC00CD0134
:1004C8004D08003A0319692A4F2A4C08013A0319C2
:1004D8004F2A033A0319472A013A03194B2A073AC4
:1004E80003194F2A4F2A20003C101730203E86005F
:1004F8008701403F84008501810A0008873132273F
:10050800823101302000B8020030B93B3808390484
:10051800031D8F2A902A922A0630932A0330080056
:100528008731862782312000CB0037088600870173
:100538004B0881000130CB004B08B7070130B802E7
:100548000030B93B380839040319AB2AAC2AB12A60
:100558008731732782310530DA2ABC15BB2A8731E7
:1005680042278231DA2A873147278231DA2A2C0852
:10057800CB004B08CA0021088A0020080A008231F3
:100588002000CC00CD014D08003A0319CC2AB72A27
:100598004C08013A0319B72A033A0319B32A013A56
:1005A8000319B32A073A0319B72AB72A0800200003
:1005B800C200C301C30A3C19E22AE32A142B4208E9
:1005C800C1004108B600BC103C153C100E30C100FB
:1005D8004108BA00F430B4000130B500BC15A330AE
:1005E800A0000730A100AC01A330A2000730A3008F
:1005F800AD01A330A4000730A500AE01A330A600CA
:100608000730A700AF01A130A8000730A900B0014A
:1006180087319B2782318631922682312000C3019F
:10062800430808002000D600D70120005608823170
:10063800DB228331003A0319222B232B192B093093
:100648002000C6000630C7005730D5005508C8003E
:1006580086316926833101302000C1000030C20094
:10066800543086312F26833100302000C600C70061
:10067800C80186315B26833187313827833184313D
:10068800D9248331013A03194A2B4B2B432B2000E1
:10069800570808002000D700200057088231DB22C5
:1006A8008331003A0319592B5A2B502BE330200081
:1006B800C6000530C7005530D6005608C800863138
:1006C8006926833101302000C1000030C200543057
:1006D80086312F26833100302000C600C700C801AC
:1006E80086315B2683318731382783318431D92499
:1006F8008331013A0319812B822B7A2B08002000C1
:10070800BC15932B873156278331B22B873183272A
:1007180083310330B22B873151278331B22B2C0818
:10072800CB004B08CA0021088A0020080A00833140
:100738002000CC00CD014D08003A0319A42B8F2BC3
:100748004C08013A03198F2B033A0319862B013AF7
:100758000319862B073A03198A2B8F2B08002200CE
:100768008C0150308D008E013F3021008C00F0301C
:100778008D0097308E00873023008E0020308D004A
:1007880013308C00803024008D0004308C008E01E2
:1007980021009513043022009D009E012700961326
:1007A80095179413A6302000C1000730C200873186
:1007B8001A2783318B15080020003C100230CB002B
:1007C8004B08BB00EF2B8731562783310C2C873120
:1007D800512783310C2C2E08CB004B08CA0004305B
:1007E800203E86008701413F8A00403F0A0083314E
:1007F8002000CC00CD014D08003A0319042CEB2B46
:100808004C08023A0319E72B013A0319E72BEB2BA3
:10081800080087319B27843120003C1C142C152CA0
:10082800222C87312C278431003A03191C2C1D2CCB
:10083800222C0F302000CE004E08BA0020003A08C3
:10084800CE00CF01CE35CF0D5F304E078400843007
:100858004F3D8500013F8A00003F0A008431200097
:10086800D0005008BA0008002000C5004108420422
:1008780003193F2C402C512C4535203E860087011A
:100888004108C03F4208C13F4308C40045082C3E08
:1008980086008701440881005E2C4535203E86008D
:1008A8008701A330C03F0730C13F45082C3E860072
:1008B80087018101080065340734E5340634FF34C4
:1008C80006343E3402349434023407340734833413
:1008D8000334603407345B340734563407345134F6
:1008E80007344C34073447340734423407343D3432
:1008F8000734E03403348631DC2684318331B32372
:1009080084318631C626843187316F278431863118
:100918003F26843186314D2684318531CF25843177
:100928008631D22684318631F72684318631852670
:10093800843108002000D200D301D30ABC18A52CAA
:10094800A62CBA2CBC14D30152080319AC2CAD2C1C
:10095800B02CBA01BA0AB42C0230D1005108BA003E
:1009680087319227843186319F26843120005308AD
:10097800080020004208C4004108C300C436C30C64
:10098800C436C30C430826009800200041080339E8
:10099800C3000430C335890BCE2C26001A08CF3982
:1009A8002000430426009A0008002000C201C20A61
:1009B800BC18DF2CE02CF32C3C11FF30C10041089F
:1009C800B60087319B278431873195278431873159
:1009D8009827843120003B08C1004108C200420822
:1009E800080020004208C4004108C300C436C30CF4
:1009F800C436C30C43082500980020004108033979
:100A0800C3000430C335890B062D25001A08CF39D9
:100A18002000430425009A00080020004208C40072
:100A28004108C300C436C30CC436C30C43082500B0
:100A38009100200041080339C3000430C335890BF5
:100A4800222D25001308CF392000430425009300E8
:100A5800080020004A0886008701403FC100413F46
:100A6800C2004A08023E86008701010886312F2607
:100A7800853100302000C600C700C80186316926CC
:100A8800853102300800512D0B302000C300623040
:100A9800890B4C2DC30B4C2D000001302000C102E6
:100AA8000030C23B410A031D5D2D420A031D5D2D26
:100AB8005E2D482D08007108F3007008F200F33627
:100AC800F20CF336F20C720826009800700803390D
:100AD800F2000430F235890B6E2D1A08CF397204F2
:100AE8009A0008007108F3007008F200F336F20C5F
:100AF800F336F20C72082500980070080339F200EA
:100B08000430F235890B852D1A08CF3972049A0002
:100B180008007108F3007008F200F336F20CF3369F
:100B2800F20C72082500910070080339F2000430B5
:100B3800F235890B9C2D1308CF39720493000800F5
:100B4800AD2D0B30F2006230890BA82DF20BA82DC9
:100B580000320130F0020030F13B700A031DB82D5D
:100B6800710A031DB82DB92DA52D0800200093107A
:100B78000130F9070030FA3D07307A02D030031906
:100B88007902031CC82DC92DCE2D8631AC2685319E
:100B9800F901FA010800F9302800960095012000B3
:100BA800931021009314A5302000C1000730C20023
:100BB80087311427853178302800970008000130E4
:100BC8002000C1000030C2004A0886312F26853136
:100BD80000302000C600C700C8018631692685316B
:100BE8000430080002302000C1000030C2004A086A
:100BF80086312F26853100302000C600C700C80185
:100C08008631692685310230080001302000C10094
:100C18000030C2004A0886312F2686310030200075
:100C2800C600C700C801863169268631023008002F
:100C380002302000C1000030C2004A0886312F2649
:100C4800863100302000C600C700C80186316926F9
:100C58008631043008002000C400BC1D342E352E17
:100C68003E2E4408C3004308B7004208B9004108B3
:100C7800B800BC1108003C3025009A009C01803067
:100C88009B0001309D00990113309800F3309E05B8
:100C980008003C3025009300950180309400013015
:100CA8009600920113309100FC309E050800200048
:100CB8004708C2004608C1004808C9004908C300DF
:100CC8000230843138248631080020004708C200E9
:100CD8004608C1004808C9004908C30000308431EB
:100CE8003824863108007708780403197C2E7D2E75
:100CF800822E78088A0077080A0086312700961322
:100D080008008B1021001513A7302000C100073000
:100D1800C2008731202786310B1608002400951A57
:100D2800962E972E9E2E94010830950096014F30EE
:100D3800920095160800A62E873126278631843121
:100D48000D2486312000BC18AA2EAB2EA02E080038
:100D580020003D083E040319B22EB32EB82E3E08DB
:100D68008A003D080A008631080020003F08400438
:100D78000319BF2EC02EC52E40088A003F080A005E
:100D880086310800703021009900980122009601F0
:100D980021001A1FD02ED12ECC2E08003C30260060
:100DA8009A001330980099013F3025009E050800ED
:100DB800240094010830950096014F309200951256
:100DC800080020003C140314360D87313227863181
:100DD800053008002700961FF22EF32EF62E8631D6
:100DE800772686310800273020009B009A01911051
:100DF80007309C00080020003C1436358731322724
:100E080086310330080020003C108731892787315C
:100E180004300800640080010131890B0F2F003471
:100E280020004208BE004108BD000800200042081A
:100E3800F8004108F700080020004208C0004108F7
:100E4800BF0008002000911D2A2F2B2F262F0800F5
:100E58002400160E890C890C013908002000C100F5
:100E68004108240091000800003084319E24873115
:100E780008002000BC10BB010E300800873177271E
:100E88008731093008008731772787310A30080011
:100E98008731732787310530080087318C278731E0
:100EA8000030080087318F278731013008008731EB
:100EB8008F2787310230080087318F27873101302B
:100EC80008002000BC10BB010E3008008B108631D2
:100ED800B926873108001630210097000800240041
:100EE8009612161608002400961616160800873162
:100EF8009E278731080081316C2187310800200046
:100F0800911508002400110808002400961508000F
:100F1800240016150800240096140800240016144E
:100F280008002100911108002400951208002000F3
:100F38009111080028001711080005300800013039
:0A0F48000800080008000800080077
:020000040001F9
:04000E00E43FFF3F8D
:00000001FF
