:020000040000FA
:0400000080311F2804
:100008007E1480310B1E09280A2812288B1C0D2803
:100018000E28122882318F2280311D288B1D152829
:1000280016281D280B1C19281A281D288231612220
:1000380080317E10090080312128EF308400813022
:1000480085003D30860000308700113082317922EA
:100058008031F601F70120308400003085001D3022
:1000680082317F2280317E10200080313B2881310F
:10007800422180310030F000F1008131D8218031F7
:100088000030F000F1008131C12180310030F000F2
:10009800F1008131AA2180313230F0000030F100C6
:1000A8008131D82180316430F0000030F100813195
:1000B800D82180310030F000F1008131D821803121
:1000C8003230F0000030F1008131C12180316430DC
:1000D800F0000030F1008131C12180310030F000A2
:1000E800F1008131C12180313230F0000030F1005F
:1000F8008131AA2180316430F0000030F100813173
:10010800AA2180310030F000F1008131AA2180312C
:100118006430F0000030F1008131D8218031643042
:10012800F0000030F1008131C12180316430F000ED
:100138000030F1008131AA2180313E2880311F280A
:100148002D342D342D342D342D342D342D342D349F
:100158002D342D342D342D342D342D342D342D348F
:100168002D342D342D342D342D342D342D342D347F
:100178002D342D342D342D342D342D342D342D346F
:100188002D342D342D342D342D342D342D342D345F
:100198002D342D342D342D342D342D342D340A3472
:1001A8000D34003422008C018D018E013F30210076
:1001B8008C00F0308D0097308E00873023008E0041
:1001C80020308D0013308C00803024008D000430E6
:1001D8008C008E012100951322009D019E012700AD
:1001E8009613951794139830F0000230F10082317D
:1001F800852280318B1508000A3444346134743404
:100208006134203474346F342034623465342034DB
:100218007734723469347434743465346E34203409
:1002280074346F34203445344534503452344F34A8
:100238004D343A340A340A340D340034003400346E
:100248000034003400340034003400340034003406
:1002580000340034003400340034003400340034F6
:1002680000340034003400340034003400340034E6
:100278000034003400340034003400348231582211
:1002880081318031D620813182312A2281318231F7
:100298009422813182310022813182310E228131D2
:1002A80082314E22813182316A2281318231362275
:1002B8008131080045344534503452344F344D347C
:1002C8002034483469346734683420344134643421
:1002D800643472346534733473343A343034783473
:1002E800253478340A340D340034453445345034D8
:1002F80052344F344D3420344C346F3477342034F6
:1003080041346434643472346534733473343A3445
:1003180030347834253478340A340D3400340A34CF
:100328000D3445344534503452344F344D34203430
:100338005234653461346434203444346134743460
:1003480061343A340A340A340D3400347108F30045
:100358007008F200F336F20CF336F20C720826003D
:10036800980070080339F2000430F235890BB92976
:100378001A08CF3972049A0008007108F30070084F
:10038800F200F336F20CF336F20C720825009800EE
:1003980070080339F2000430F235890BD0291A08A5
:1003A800CF3972049A0008007108F3007008F2004F
:1003B800F336F20CF336F20C72082500910070083F
:1003C8000339F2000430F235890BE7291308CF39D5
:1003D80072049300080000340034A134A234A3341A
:1003E800A434A534A634A734A834A934AA34AB3429
:1003F800AC34AD34AE34AF343C3025009A009C01A7
:1004080080309B0001309D00990113309800F33033
:100418009E0508003C30250093009501803094002B
:1004280001309600920113309100FC309E050800BF
:10043800740875040319212A222A272A75088A00B4
:1004480074080A00823127009613080070302100D2
:10045800990098012200960121001A1F342A352A92
:10046800302A08008B10210015139930F000023053
:10047800F10082318A2282310B160800760877044F
:100488000319472A482A4D2A77088A0076080A005D
:10049800823108003C3026009A00133098009901F8
:1004A8003F3025009E05080024009401083095007F
:1004B80096014F309200951208002700961F652A72
:1004C800662A692A82311C228231080027302000DE
:1004D8009B009A01911007309C0008003034783452
:1004E80025347834203420340034FE0012001E00F5
:1004F800FE0B7A2A0034640080010131890B802ABE
:1005080000347108F5007008F40008007108F7005D
:100518007008F60008008B108231422282310800F0
:0C052800163021009700080008000800B1
:020000040001F9
:04000E00E43FFF3F8D
:00000001FF
